:04000000FEEF7FF0A0
:106D68001200BC821200BC921200BC901200BC80BF
:106D78001200600E3901D96FDB6BDD6B080EDF6F17
:106D8800DE6B1200CFEC36F0B6EC38F0BDEC36F026
:106D9800D9EC36F012003901C06BC16BC26BC36B02
:106DA800C46BC56BC66BC76B1200020E3D01146F36
:106DB800400E156F166B1C6B050E196FC4961200EA
:106DC80000EE00F1200EEE6AE806FDE100EEC1F0EB
:106DD800220EEE6AE806FDE10001ACEF4AF0015030
:106DE800D96EDA6A0C0ED92660000BF0DFFF01506D
:106DF800D96EDA6A0D0ED92660000BF0DFFF12009B
:106E0800016E010E3D01126F600007F011FD39019E
:106E1800A2A911EF37F013EF37F00BEF37F03D0170
:106E28001051120002C001F0B7EC36F002C001F0B8
:106E3800B9EC36F0035004EC37F00001C66F02C01D
:106E480001F0B5EC36F01200BA8C000E026E0A0E94
:106E5800016ECDEC37F0BA9C000E026E0A0E016E80
:106E6800CDEC37F0BA8C000E026E0A0E016ECDEC36
:106E780037F012000150D96EDA6A040ED926600084
:106E88000BF0DEFF60000FF0DDFF0150D96EDA6A0B
:106E9800060ED926600013F0DEFF600017F0DDFF54
:106EA80012009CC001F09EC002F09FC003F0A0C079
:106EB80004F0A1C005F03EEC37F09CC098F09DC0EE
:106EC80099F0A2C09AF0A3C09BF02AEC3AF0120005
:106ED8000150D96EDA6A080ED92660000BF0DEFF81
:106EE80060000FF0DDFF0150D96EDA6A0A0ED9266C
:106EF80060000BF0DEFF60000FF0DDFF12000150B4
:106F0800D96EDA6A080ED92660000BF0DEFF600041
:106F18000FF0DDFF0150D96EDA6A0A0ED92660003B
:106F280013F0DEFF600017F0DDFF12000750086E57
:106F380006C009F005C001F0B7EC36F005C001F055
:106F4800BBEC36F0080E016E000E036E020E026EE8
:106F58008DEC38F005C001F0B5EC36F0120002BE39
:106F6800B8EF37F0BAEF37F0C0EF37F001C001F0F3
:106F780002C002F0CCEF37F001C003F002C004F009
:106F8800031E041E034A042A03C001F004C002F0D1
:106F98001200000E056E000E046EDDEF37F0150EC0
:106FA800036EC60EE82EFED7032EFCD700D0044A87
:106FB800052A0150045C02500558D8A0E6EF37F0C6
:106FC800E8EF37F0D3EF37F01200340E366E31C0E9
:106FD80037F0000E3A6E000E396E000E416E000E4C
:106FE800406E370E2B6E32C02CF033C02DF0360EAB
:106FF8002E6E44EC38F031503924D96EDA6ADF6AE3
:1070080012000150D96EDA6A6F0078FF03F06F0042
:1070180074FF04F00250D96EDA6A0150E16EE26A38
:107028006F007BFFE6FF6F0077FFE5FF0250D96E28
:10703800DA6A60000FF0DEFF600013F0DDFF120077
:10704800000E0E6E000E0D6E33EF38F00CC001F01E
:10705800026A0BC003F0F7EC3AF00D4A0E2A0D5005
:107068000924D96E0E500A20DA6EDF500C6E0C50CF
:10707800D8A441EF38F043EF38F02AEF38F0120087
:107088002CC02FF02DC030F052EF38F02BC01FF07D
:107098002F0E206E2EC021F075EC3FF06000BFF07F
:1070A800F6FF6000C3F0F7FFF86A0800F550000922
:1070B800D8A461EF38F063EF38F04AEF38F0000EEB
:1070C8002C6E000E2B6E120016C004F0000E066E19
:1070D800000E056E000E086E000E076E1650D96E73
:1070E800DA6A6F0078FF09F06F0074FF0AF0165033
:1070F800D96EDA6A020ED9266F0078FF0BF06F009E
:1071080074FF0CF017C00DF018C00EF035EC46F007
:10711800120001C004F0A8EF38F0010E3D01126F13
:107128000450D96EDA6ADF50116F3901A2A99FEFB6
:1071380038F0A1EF38F099EF38F00450D96EDA6AD8
:107148006F0043F4DFFF042A0206D8A003060228D2
:1071580006E10328D8A4B3EF38F0B5EF38F091EF83
:1071680038F01200400EBA6EBB6A030EBC6EBF0E3A
:10717800C26EDF0EC36EF00EC46EE00E3A01606F91
:10718800DF0E506FBF0E406F816B516B416B616BAF
:107198005A6B5B6B6A6B6B6B426B526B626B4369CE
:1071A80053696369446954696469080E846F130EEE
:1071B800DE6F1E0E136F1F0E126F140EDF6F12009C
:1071C80003500410D8B4EBEF38F0EDEF38F011EFBE
:1071D80039F0010E056EF5EF38F0D8900336043615
:1071E800052A04AEFAEF38F0FCEF38F0F1EF38F08A
:1071F8000350015C04500258D8A005EF39F007EF9E
:1072080039F00BEF39F00350015E0450025AD89060
:1072180004320332052EFCEF38F001C001F002C041
:1072280002F012005150D96EDA6A170ED926DE50D4
:10723800DE10D8B422EF39F024EF39F026EF39F018
:1072480048EF39F051C038F052C039F053C03AF025
:1072580054C03BF055C03CF056C03DF05750532445
:107268005B6E585054205C6EFF0E5B243E6EFF0E22
:107278005C203F6E55C040F056C041F059C042F006
:107288005AC043F049EC40F012005150D96EDA6A06
:10729800150ED926DE50DE10D8B455EF39F057EF69
:1072A80039F059EF39F07BEF39F051C038F052C05E
:1072B80039F053C03AF054C03BF055C03CF056C0CA
:1072C8003DF053C03EF054C03FF0575055245B6E1C
:1072D800585056205C6EFF0E5B24406EFF0E5C20FB
:1072E800416E59C042F05AC043F049EC40F01200D8
:1072F8002E50D96EDA6A110ED926DE50DE10D8B4B7
:1073080088EF39F08AEF39F0AFEF39F02FC020F06D
:1073180030C021F031C022F032C023F033C024F055
:1073280034C025F035C026F02E50D96EDA6A110E19
:10733800D9266F0078FF36F06F0074FF37F002D857
:10734800AFEF39F00500FA6E3650FD6E3750FE6E1D
:10735800FF6AFA5012001200000E066E000E056E4B
:1073680003500410D8B4BBEF39F0BDEF39F0E5EFA6
:1073780039F0010E076EC5EF39F0D89003360436A0
:10738800072A04AECAEF39F0CCEF39F0C1EF39F073
:10739800D890053606360350015C04500258D8A030
:1073A800D8EF39F0DAEF39F0DFEF39F00350015E4A
:1073B8000450025A0580D89004320332072ECCEFCD
:1073C80039F005C001F006C002F0120077C051F094
:1073D80078C052F079C053F07AC054F000017D5162
:1073E8007B5D556E7E517C59566E7DC081F07EC0A6
:1073F80082F0D89081378237010E8125576E000EB2
:107408008221586E7FC059F080C05AF049EC39F09B
:1074180077C060F078C061F079C062F07AC063F03C
:107428007BC064F07CC065F07DC066F07EC067F00C
:10743800030E0001686F000E6A6F000E696F7FC04F
:107448006BF080C06CF007EC43F012004CEF3AF0A0
:1074580098C08AF099C08BF060006BF2F6FF60006C
:107468006FF2F7FF000EF86E0F0EF76403D00800F6
:10747800F55007D06F00DBFFE1FF6F00DFFFE2FF91
:10748800E75000018C6F2DEC41F000019A4B9B2BCB
:1074980060006BF2F6FF60006FF2F7FF000EF86E07
:1074A8000F0EF76403D00800F55007D06F00DBFF1C
:1074B800E1FF6F00DFFFE2FFE7500009D8A467EFA4
:1074C8003AF069EF3AF02CEF3AF012000650D96E14
:1074D800DA6A1B0ED926DF6A06C001F0000E036EB9
:1074E800600E026E000E056E400E046ECEEC3DF08E
:1074F8000650D96EDA6A110ED926A00EDE6E7D0E00
:10750800DD6E0650D96EDA6A130ED926D00EDE6EFD
:10751800700EDD6E0650D96EDA6A150ED926DE6A4F
:10752800DD6A0650D96EDA6A170ED926DE6ADD6A78
:107538000650D96EDA6A190ED9266A0EDE6E8C0EDE
:10754800DD6EC492C490C29CBC82BC80BA8C12000E
:107558000001C5A1B2EF3AF0B4EF3AF0BCEF3AF04F
:1075680010C009F011C00AF00FC00BF024EC38F07D
:1075780013BEC3EF3AF0C1EF3AF0C7EF3AF0000E8E
:10758800136E000E126E000E166E000E156ED7EFFB
:107598003AF0000E026E200E016E0FC003F0F7ECF9
:1075A8003AF0154A162A1250155C1650800A146EC5
:1075B8001350800A1458D8A0E4EF3AF0E6EF3AF0F6
:1075C800CDEF3AF00001C5B1ECEF3AF0EEEF3AF04A
:1075D800F6EF3AF010C009F011C00AF00FC00BF036
:1075E80024EC38F012000350D8B4FDEF3AF0FFEF66
:1075F8003AF007EF3BF00350D8A405EF3BF007EF54
:107608003BF00CEF3BF00150B4EC36F04CEF3BF0A4
:107618000350D96EDA6A090ED926DE50DE10D8B4C6
:1076280018EF3BF01AEF3BF033EF3BF00350D96E05
:10763800DA6A090ED9260350E16EE26A020EE126E3
:10764800DE50E65CE650800A086EDE50800A085874
:10765800D8B031EF3BF033EF3BF04CEF3BF0035049
:10766800D96EDA6A020ED926DF50046E0350D96E3D
:10767800DA6ADF500424D96EDA6A600007F0DFFFA7
:107688000350D96EDA6A020ED926DE2A000EDD22F0
:107698001200000E076E000E066E0150D96EDA6AEF
:1076A8006F007BFFF6FF6F0077FFF7FFF86A0800AF
:1076B800F5502A0AD8A463EF3BF065EF3BF092EF50
:1076C8003BF00150D96EDA6ADE2A000EDD22025044
:1076D800D96EDA6A020EDF26DF5CD96EDA6A6F00CD
:1076E80078FF06F06F0078FF07F0A8EF3BF00A0E6E
:1076F80006026F00CCFF03F06F00D0FF04F0070212
:10770800F350042605500324066E000E0420076E6D
:107718000150D96EDA6ADE2A000EDD220150D96ED8
:10772800DA6A6F007BFFF6FF6F0077FFF7FFF86AF2
:107738000800F550D00F056E090E0564A6EF3BF062
:10774800A8EF3BF07BEF3BF006C001F007C002F06A
:107758001200066A04BEB5EF3BF0B3EF3BF0BBEF97
:107768003BF0036C041ED8B0042A010E066E02BE5C
:10777800C2EF3BF0C0EF3BF0C8EF3BF0016C021EDC
:10778800D8B0022A010E061A000E086E000E076E07
:1077980003500410D8B4D3EF3BF0D5EF3BF0FDEF26
:1077A8003BF0010E056EDDEF3BF0D8900336043652
:1077B800052A04AEE2EF3BF0E4EF3BF0D9EF3BF0F3
:1077C800D890073608360350015C04500258D8A0F8
:1077D800F0EF3BF0F2EF3BF0F7EF3BF00350015EC8
:1077E8000450025A0780D89004320332052EE4EF81
:1077F8003BF00650D8B403EF3CF005EF3CF009EF3E
:107808003CF0076C081ED8B0082A07C001F008C071
:1078180002F0120060C051F061C052F062C053F033
:1078280063C054F064C055F065C056F066C057F0A8
:1078380067C058F06AC059F06BC05AF016EC39F0BE
:1078480060C051F061C052F062C053F063C054F0A0
:107858000001685164255D6E695165215E6EFF0EF9
:107868005D24556EFF0E5E20566E66C057F067C0E9
:1078780058F06AC059F06BC05AF016EC39F060C085
:1078880051F061C052F062C053F063C054F064C05C
:1078980055F065C056F068C057F069C058F06AC026
:1078A80059F06BC05AF049EC39F060C051F061C032
:1078B80052F00001665162255D6E675163215E6E6C
:1078C800FF0E5D24536EFF0E5E20546E64C055F0AB
:1078D80065C056F068C057F069C058F06AC059F0E2
:1078E8006BC05AF049EC39F01200026E3D0114BF2A
:1078F80080EF3CF082EF3CF0E6EF3CF00250050DE3
:10790800C90EF324F66E9F0EF420F76EF86A000E87
:10791800F82208006F00D7FF14FD0250050D010E74
:10792800F326000EF422C90EF324F66E9F0EF420FF
:10793800F76EF86A000EF82208006F00D7FF15FDF1
:107948000250050D020EF326000EF422C90EF32490
:10795800F66E9F0EF420F76EF86A000EF822080003
:10796800F5500309166F0250050D030EF326000E9D
:10797800F422C90EF324F66E9F0EF420F76EF86A0F
:10798800000EF82208006F00D7FF19FD0250050D00
:10799800040EF326000EF422C90EF324F66E9F0E91
:1079A800F420F76EF86A000EF82208006F00D4FF82
:1079B80001F0014601460146C4500118F70B0118B1
:1079C800C46E148F120000016051D96EDA6A190E64
:1079D800D926DE50DE10D8B4F4EF3CF0F6EF3CF0D8
:1079E80025EF3DF061C004F062C005F063C006F009
:1079F80064C007F065C008F066C009F067C00AF007
:107A080068C00BF069C00CF06AC00DF06BC00EF0D6
:107A18006051D96EDA6A190ED9266F0078FF5DF0C9
:107A28006F0074FF5EF002D823EF3DF00500FA6E98
:107A38005D50FD6E5E50FE6EFF6AFA50120059EFFF
:107A48003DF062C06CF063C06DF044EF3DF060C083
:107A580051F061C052F06CC053F06DC054F064C076
:107A680055F065C056F068C057F069C058F06AC054
:107A780059F06BC05AF049EC39F000016C4B6D2B92
:107A8800665162255D6E675163215E6E5D506C5D67
:107A98006D51800A5F6E5E50800A5F58D8A057EF1C
:107AA8003DF059EF3DF02BEF3DF01200010E1A6E3C
:107AB800C1C01BF0C2C01CF0000E1E6E1F0E1D6E52
:107AC80001011F6B90EF3DF01D06D8A01E06000EA9
:107AD8001D24D96E010E1E20DA6E18C001F019C0DF
:107AE80002F0000E046E0A0E036EE4EC38F001504A
:107AF800300FDF6E1A6A1B06D8A01C0618C001F0EA
:107B080019C002F0000E046E0A0E036EB0EC39F0D4
:107B180001C018F002C019F01D501E10D8B497EF1C
:107B28003DF099EF3DF0BFEF3DF018501910D8A483
:107B3800A0EF3DF0A2EF3DF068EF3DF01A50D8A459
:107B4800A8EF3DF0AAEF3DF068EF3DF01CBEB5EFA1
:107B58003DF01C5008E11B04D8A0B5EF3DF0B7EF8D
:107B68003DF0BFEF3DF00001C5B3BDEF3DF0BFEF05
:107B78003DF068EF3DF017C00FF0000E1D24106EA9
:107B8800010E1E20116E1BC012F01CC013F0ACECCD
:107B98003AF012000150D96EDA6A60000BF0DEFF8D
:107BA80060000FF0DDFF0150D96EDA6A020ED926A7
:107BB800600013F0DEFF600017F0DDFF0150D96EA2
:107BC800DA6A040ED926DE6ADD6A0150D96EDA6AED
:107BD800060ED926DE6ADD6A0150D96EDA6A080E09
:107BE800D926FF0EDE6EFF0EDD6E0150D96EDA6A01
:107BF8000A0ED926FF0EDE6EFF0EDD6E0150D96E1D
:107C0800DA6A0C0ED926010EDF6E0150D96EDA6AD7
:107C18000D0ED926010EDF6E0150D96EDA6A0E0EEE
:107C2800D926DF6A0150D96EDA6A0F0ED926010EFD
:107C3800DF6E0150D96EDA6A100ED926DF6A01505C
:107C4800D96EDA6A110ED926DE6ADD6A0150D96E5C
:107C5800DA6A130ED926DE6ADD6A0150D96EDA6A4D
:107C6800150ED926DE6ADD6A0150D96EDA6A170E5A
:107C7800D926DE6ADD6A0150D96EDA6A190ED9266C
:107C8800DE6ADD6A1200000E436E000E426EC0EF1F
:107C98003EF0000E456E000E446EAFEF3EF03650DB
:107CA80042026F00CCFF3AF06F00D0FF3BF0430276
:107CB800F3503B2637504202F3503B2644503A24B7
:107CC8003E6E45503B203F6E3EC03AF03FC03BF011
:107CD800D8903A363B363A5034243C6E3B503520E7
:107CE8003D6E6000F3F0F6FF6000F7F0F7FFF86A0A
:107CF80009006F00D4FF40F00A006F00D4FF41F084
:107D08002FC020F044503024216E45503120226E7F
:107D180042503224236E43503320246E40C025F055
:107D280041C026F02E50D96EDA6A110ED9266F009E
:107D380078FF3AF06F0074FF3BF002D8ADEF3EF0E9
:107D48000500FA6E3A50FD6E3B50FE6EFF6AFA501F
:107D58001200444A452A3650445C4550800A3A6E1F
:107D68003750800A3A58D8A0BCEF3EF0BEEF3EF03C
:107D780053EF3EF0424A432A3850425C4350800A4F
:107D88003A6E3950800A3A58D8A0CDEF3EF0CFEF7E
:107D98003EF04DEF3EF0120022BED5EF3EF0D7EF99
:107DA8003EF074EF3FF02050D96EDA6ADE50215C65
:107DB8002250800A296EDE50800A2958D8B0E7EF91
:107DC8003EF0E9EF3EF074EF3FF024BEEEEF3EF0F8
:107DD800F0EF3EF074EF3FF02050D96EDA6A020EF1
:107DE800D926DE50235C2450800A296EDE50800A92
:107DF8002958D8A002EF3FF004EF3FF044EF3FF0DE
:107E080074EF3FF021C02AF022C02BF023C021F0EC
:107E180024C022F02AC023F02BC024F021505F0890
:107E2800216E2250D8A0E82A0008226E58EF3FF0B1
:107E380021505F08216E2250D8A0E82A0008226E3F
:107E480023503F08236E2450D8A0E82A0008246E47
:107E580058EF3FF021C02CF022C02DF023C021F0B4
:107E680024C022F02CC023F02DC024F023503F085A
:107E7800236E2450D8A0E82A0008246E58EF3FF05B
:107E88002050D96EDA6A1B0ED926DF50010AD8B401
:107E980006EF3FF0030AD8B41CEF3FF0010AD8B44C
:107EA8002EEF3FF058EF3FF020C004F021C005F05E
:107EB80022C006F023C007F024C008F0000E0A6EA6
:107EC800010E096E000E0C6E010E0B6E07EC44F0ED
:107ED80020C005F025C006F026C007F09AEC37F060
:107EE80012002050D96EDA6A6F007BFFF6FF6F0030
:107EF80077FFF7FFF86A0800F550250AD8A487EF3E
:107F08003FF089EF3FF034EF40F02050D96EDA6A45
:107F1800DE2A000EDD22000E0001C26F000EC16FC6
:107F2800C1C0C5F0C369C469286ABBEF3FF000014E
:107F3800C5832050D96EDA6ADE2A000EDD22BBEF37
:107F48003FF0010E286EBBEF3FF02050D96EDA6A81
:107F58006F007BFFF6FF6F0077FFF7FFF86A0800F6
:107F6800F550300AD8B49BEF3FF0A5EF3FF028500A
:107F7800D8B4C1EF3FF0C3EF3FF0A9EF3FF020C006
:107F880001F021C002F04DEC3BF001C0C1F002C08D
:107F9800C2F00001C2BFD5EF3FF0D3EF3FF0DAEFF8
:107FA8003FF0C581C16DC21FD8B0C22B2050D96E19
:107FB800DA6A6F0078FF29F06F0074FF2AF060001A
:107FC800A7F0F6FF6000ABF0F7FFF86A0800F5507D
:107FD800750AD8A4F2EF3FF0F4EF3FF02CEF40F031
:107FE8002150D96EDA6A020EDF26DF5CD96EDA6AB2
:107FF8006F0078FF24F06F0078FF25F0010E292428
:10800800226E000E2A20236E2050D96EDA6A600094
:108018008BF0DEFF60008FF0DDFF1DEF40F01FC02A
:1080280017F024C018F025C019F05AEC3DF048EFBD
:1080380040F06000A7F0F6FF6000ABF0F7FFF86AC9
:108048000800F550750AD8B413EF40F02CEF40F053
:108058002050D96EDA6ADE2A000EDD2248EF40F0A1
:108068002050D96EDA6A6F007BFFF6FF6F0077FF4A
:10807800F7FFF86A0800F550016E026A1FC003F0A6
:10808800F7EC3AF02CEF40F012003A503E5C016EEB
:108098003B503F58026EB3EC37F001C044F002C0C9
:1080A80045F03C50405C016E3D504158026EB3ECC7
:1080B80037F00150445C4550800A466E0250800AF1
:1080C8004658D8A06AEF40F06DEF40F0010E6EEF11
:1080D80040F0000E4D6E4E6A4D504E10D8B477EFFA
:1080E80040F079EF40F085EF40F03A0E016E3C0E1B
:1080F800026E05EC38F03E0E016E400E026E05EC85
:1081080038F03A503E5C3F50800A446E3B50800A3B
:108118004458D8B092EF40F094EF40F0A0EF40F010
:108128003A0E016E3E0E026E05EC38F03C0E016E02
:10813800400E026E05EC38F03A503E5C4F6E3B50F4
:108148003F58506E3C50405C016E3D504158026EA5
:10815800B3EC37F001C047F002C048F04FC001F05F
:1081680050C002F0000E046E020E036EADEC3BF040
:1081780001C04BF002C04CF040503C5C3D50800ABE
:10818800446E4150800A4458D8A0CDEF40F0CFEF5C
:1081980040F0D3EF40F049684A681DEF41F0000E07
:1081A8004A6E010E496E1DEF41F04D504E10D8B485
:1081B800E0EF40F0E2EF40F0F6EF40F038C02EF08C
:1081C80039C02FF03CC030F03DC031F03AC032F039
:1081D8003BC033F042C034F043C035F07CEC39F09A
:1081E80008EF41F038C02EF039C02FF03AC030F017
:1081F8003BC031F03CC032F03DC033F042C034F0F7
:1082080043C035F07CEC39F047504B5E48504C5A2F
:108218004CBE13EF41F011EF41F01BEF41F0495014
:108228003C264A503D224F504B2650504C223A4A49
:108238003B2A3A503E5C3F50800A446E3B50800ACD
:108248004458D8B02AEF41F02CEF41F0D9EF40F074
:1082580012000A0E00018C19D8A435EF41F037EF4F
:1082680041F052EF41F08A51D96EDA6A040ED926EC
:10827800DE6ADD6A8A51D96EDA6A0D0ED926DF50B8
:108288008D6F8D51080D8A51D96EDA6A060ED9267E
:10829800F350DE26F450DD2219EF42F00D0E8C1952
:1082A800D8A459EF41F05BEF41F064EF41F08A51F7
:1082B800D96EDA6A040ED926DE6ADD6A19EF42F051
:1082C8008AC06EF08BC06FF08A51D96EDA6A040EDC
:1082D800D9266F0078FF70F06F0074FF71F08A5133
:1082E800D96EDA6A060ED9266F0078FF72F06F0031
:1082F80074FF73F08CC074F08A51D96EDA6A080E74
:10830800D9266F0078FF75F06F0074FF76F08A51F8
:10831800D96EDA6A0A0ED9266F0078FF77F06F00F7
:1083280074FF78F08A51D96EDA6A0C0ED926DF50BC
:10833800796F8A51D96EDA6A0D0ED926DF507A6FB5
:10834800A1EC48F000018A51D96EDA6A0C0ED926E0
:10835800DF508D6F8D51060D8A51D96EDA6A040E81
:10836800D926F350DE26F450DD228A51D96EDA6A16
:108378000F0ED926DF50D8B4C4EF41F0C6EF41F054
:1083880019EF42F08A51D96EDA6A040ED9268A5159
:10839800E16EE26A6F0098FF8FF06F0094FF90F033
:1083A8008A51E16EE26A0C0EE126E750916F926BFA
:1083B800FA0E91036F00CCFF93F06F00D0FF94F09A
:1083C8009203F3509427FF0E9103F35094278F5193
:1083D8009325956F90519421966FDE50955D965137
:1083E800800A976FDE50800A9759D8B0FEEF41F0A7
:1083F80000EF42F019EF42F08A51D96EDA6A040EA2
:10840800D926DE6ADD6A8A51D96EDA6A0D0ED92656
:10841800DF508D6F8D51080D8A51D96EDA6A060EBC
:10842800D926F350DE26F450DD221200000E79EC36
:108438003CF019C006F028EC37F019C002F0AE0E77
:10844800036E16EC37F019C002F0A00E036E16EC9E
:1084580037F019C002F0720E036E16EC37F019C02F
:1084680002F0A10E036E16EC37F019C002F0000EF0
:10847800036E16EC37F019C002F0A20E036E16EC6C
:1084880037F019C002F0000E036E16EC37F019C071
:1084980002F0A40E036E16EC37F019C002F0A80E15
:1084A800036E16EC37F019C002F03F0E036E16EC9F
:1084B80037F019C002F0AD0E036E16EC37F019C094
:1084C80002F08E0E036E16EC37F019C002F0B00EF3
:1084D800036E16EC37F019C002F00B0E036E16ECA3
:1084E80037F019C002F0B10E036E16EC37F019C060
:1084F80002F0310E036E16EC37F019C002F0B30E1D
:10850800036E16EC37F019C002F0F00E036E16EC8D
:1085180037F019C002F08A0E036E16EC37F019C056
:1085280002F0640E036E16EC37F019C002F08B0EE1
:10853800036E16EC37F019C002F0780E036E16ECD5
:1085480037F019C002F08C0E036E16EC37F019C024
:1085580002F0640E036E16EC37F019C002F0BB0E81
:10856800036E16EC37F019C002F03A0E036E16ECE3
:1085780037F019C002F0BE0E036E16EC37F019C0C2
:1085880002F03E0E036E16EC37F019C002F0870EAB
:10859800036E16EC37F019C002F0060E036E16ECE7
:1085A80037F019C002F0810E036E16EC37F019C0CF
:1085B80002F0910E036E16EC37F019C002F0820E2D
:1085C800036E16EC37F019C002F0500E036E16EC6D
:1085D80037F019C002F0830E036E16EC37F019C09D
:1085E80002F07D0E036E16EC37F019C002F0AF0EE4
:1085F800036E16EC37F019C016F0070E186E1768E0
:1086080068EC38F01200000166510108716F67517B
:10861800D8A0E82A0008726F000E6E6F010E6D6F09
:1086280066C05DF067C05EF0D8905D365E365D1E50
:108638005E1E5D4A5E2A5DC06FF05EC070F0000E7F
:10864800746F000E736F66C075F067C076F0F6EF52
:1086580043F072BF32EF43F034EF43F03FEF43F0A3
:108668007507D8A07607020E6F27000E70236F518A
:10867800712770517223734B742B020E6D27000EF5
:108688006E236D5171276E51722368A14EEF43F02E
:1086980050EF43F09FEF43F060C051F061C052F0DB
:1086A80073516225536E74516321546E7551645D24
:1086B800556E76516559566E75C05DF076C05EF0A0
:1086C800D8905D365E3669515D266A515E22010E8C
:1086D8005D24576E000E5E20586E6BC059F06CC05A
:1086E8005AF049EC39F060C051F061C052F0000115
:1086F80075516225536E76516321546E7351645DD2
:10870800556E74516559566E73C05DF074C05EF055
:10871800D8905D365E3669515D266A515E22010E3B
:108728005D24576E000E5E20586E6BC059F06CC009
:108738005AF049EC39F0000168A3A5EF43F0A7EF20
:1087480043F0F6EF43F060C051F061C052F073514E
:10875800625D536E74516359546E7551645D556E04
:1087680076516559566E75C05DF076C05EF0D8904A
:108778005D365E3669515D266A515E22010E5D24C2
:10878800576E000E5E20586E6BC059F06CC05AF0E0
:1087980049EC39F060C051F061C052F000017551E8
:1087A800625D536E76516359546E7351645D556EB4
:1087B80074516559566E73C05DF074C05EF0D89000
:1087C8005D365E3669515D266A515E22010E5D2472
:1087D800576E000E5E20586E6BC059F06CC05AF090
:1087E80049EC39F000017551735D7451800A5D6E72
:1087F8007651800A5D58D8A004EF44F006EF44F0A3
:108808002DEF43F0120005C01CF007C01DF01C50EE
:108818000D6E0E6A0450D96EDA6A6F0078FF0FF099
:108828006F0074FF10F0FF0E0F24116EFF0E102062
:10883800126E0D50115C1250800A136E0E50800A91
:108848001358D8B02AEF44F02CEF44F033EF44F03B
:108858000450D96EDA6ADF500D6E0D041C6E1D507F
:108868000D6E0E6A0450D96EDA6A020ED9266F00B0
:1088780078FF0FF06F0074FF10F0FF0E0F24116ED9
:10888800FF0E1020126E0D50115C1250800A136EEC
:108898000E50800A1358D8B054EF44F056EF44F005
:1088A8005FEF44F00450D96EDA6A020ED926DF5021
:1088B8000D6E0D041D6E055009240D6E0D041E6EFF
:1088C80007500B240D6E0D041F6E1E500D6E0E6AA0
:1088D8000450D96EDA6A6F0078FF0FF06F0074FFEA
:1088E80010F0FF0E0F24116EFF0E1020126E0D50A7
:1088F800115C1250800A136E0E50800A1358D8B0BB
:1089080088EF44F08AEF44F091EF44F00450D96EB8
:10891800DA6ADF500D6E0D041E6E1F500D6E0E6A62
:108928000450D96EDA6A020ED9266F0078FF0FF06C
:108938006F0074FF10F0FF0E0F24116EFF0E102051
:10894800126E0D50115C1250800A136E0E50800A80
:108958001358D8B0B2EF44F0B4EF44F0BDEF44F090
:108968000450D96EDA6A020ED926DF500D6E0D0456
:108978001F6E1C501E5CD8B0C4EF44F0C6EF44F024
:10898800CDEF44F01CC014F0156A1EC01CF014C0D2
:108998001EF01D501F5CD8B0D4EF44F0D6EF44F061
:1089A800DDEF44F01DC016F0176A1FC01DF016C099
:1089B8001FF00450D96EDA6A1B0ED926DFA0E7EF44
:1089C80044F0E9EF44F0F7EF44F01CC018F0196ADE
:1089D8001DC01CF018C01DF01EC01AF01B6A1FC075
:1089E8001EF01AC01FF004C002F0150E036E16EC3C
:1089F80037F004C002F01CC003F016EC37F004C0D6
:108A080002F01EC003F016EC37F004C002F0750E39
:108A1800036E16EC37F004C002F01DC003F016EC2C
:108A280037F004C002F01FC003F016EC37F0120054
:108A380053BE21EF45F023EF45F038EF45F055BE22
:108A480028EF45F02AEF45F038EF45F057BE2FEFF5
:108A580045F031EF45F038EF45F059BE38EF45F0B5
:108A680036EF45F054EF45F051C038F051C039F0B9
:108A780052C03AF053C03BF054C03CF055C03DF0F2
:108A880056C03EF057C03FF058C040F059C041F0C2
:108A98005AC042F05BC043F049EC40F034EF46F076
:108AA8005150D96EDA6ADE50525C5350800A5E6EBD
:108AB800DE50800A5E58D8A064EF45F066EF45F0B6
:108AC80075EF45F05150D96EDA6A6F0078FF5CF0A7
:108AD8006F0074FF5DF0FF0E5C24526EFF0E5D2088
:108AE800536E5150D96EDA6A020ED926DE50545CA4
:108AF8005550800A5E6EDE50800A5E58D8A087EF17
:108B080045F089EF45F09AEF45F05150D96EDA6A91
:108B1800020ED9266F0078FF5CF06F0074FF5DF0DD
:108B2800FF0E5C24546EFF0E5D20556E5150D96EB9
:108B3800DA6ADE50565C5750800A5E6EDE50800A54
:108B48005E58D8A0AAEF45F0ACEF45F0BBEF45F072
:108B58005150D96EDA6A6F0078FF5CF06F0074FFCD
:108B68005DF0FF0E5C24566EFF0E5D20576E51506F
:108B7800D96EDA6A020ED926DE50585C5950800A3E
:108B88005E6EDE50800A5E58D8A0CDEF45F0CFEF7C
:108B980045F0E0EF45F05150D96EDA6A020ED92659
:108BA8006F0078FF5CF06F0074FF5DF0FF0E5C24CF
:108BB800586EFF0E5D20596E51C002F0210E036EF3
:108BC80016EC37F051C002F052C003F016EC37F043
:108BD80051C002F054C003F016EC37F051C002F057
:108BE80056C003F016EC37F051C002F058C003F03D
:108BF80016EC37F051C002F05AC05CF05BC05DF073
:108C08000B0E5E6ED8905D325C325E2E06EF46F03B
:108C1800D8905C34036E16EC37F051C002F05AC09D
:108C28005CF05BC05DF0050E5E6ED8905D325C3224
:108C38005E2E19EF46F05C503F0B036E16EC37F0D2
:108C480051C002F05A505A243F0B036E16EC37F00D
:108C5800150E5C6EC60EE82EFED75C2EFCD700D033
:108C680012000450D96EDA6ADE50055C0650800A9C
:108C7800116EDE50800A1158D8B045EF46F047EF24
:108C880046F04FEF47F00450D96EDA6A020ED92643
:108C9800DE50075C0850800A116EDE50800A1158B9
:108CA800D8A059EF46F05BEF46F05DEF46F04FEF86
:108CB80047F00450D96EDA6A09500524116E0A503B
:108CC8000620126EFF0E1124136EFF0E1220146E72
:108CD800DE50135C1450800A156EDE50800A155859
:108CE800D8A079EF46F07BEF46F08AEF46F00450C3
:108CF800D96EDA6A6F0078FF0FF06F0074FF10F01A
:108D080005500F5C096E065010580A6E0450D96E53
:108D1800DA6A020ED9260B500724116E0C5008206F
:108D2800126EFF0E1124136EFF0E1220146EDE5009
:108D3800135C1450800A156EDE50800A1558D8A0AE
:108D4800A8EF46F0AAEF46F0BBEF46F00450D96E04
:108D5800DA6A020ED9266F0078FF0FF06F0074FFF1
:108D680010F007500F5C0B6E085010580C6E04C0C2
:108D780002F0260E036E16EC37F004C002F0010E66
:108D8800036E16EC37F004C002F0220E036E16ECE8
:108D980037F004C002F005C003F016EC37F004C049
:108DA80002F007C003F016EC37F004C002F00550DB
:108DB80009240F6E0F04036E16EC37F004C002F09E
:108DC80007500B240F6E0F04036E16EC37F004C027
:108DD80002F00DC00FF00EC010F00B0E116ED890FF
:108DE80010320F32112EF3EF46F0D8900F34036E85
:108DF80016EC37F004C002F00DC00FF00EC010F0F2
:108E0800050E116ED89010320F32112E06EF47F072
:108E18000F503F0B036E16EC37F004C002F00D50F4
:108E28000D243F0B036E16EC37F004C002F00DC0A2
:108E38000FF00EC010F00B0E116ED89010320F32DA
:108E4800112E21EF47F0D8900F34036E16EC37F04F
:108E580004C002F00DC00FF00EC010F0050E116E28
:108E6800D89010320F32112E34EF47F00F503F0BCD
:108E7800036E16EC37F004C002F00D500D243F0BC2
:108E8800036E16EC37F03F0E0F6E550EE82EFED728
:108E98000F2EFCD7000012003E500108486E3F50CC
:108EA800D8A0E82A0008496E000E456E010E446EEF
:108EB8003EC042F03FC043F0D89042364336421E8F
:108EC800431E424A432A42C046F043C047F0000EC0
:108ED8004B6E000E4A6E3EC04CF03FC04DF038C09D
:108EE8002EF039C02FF03AC030F03BC031F03E5080
:108EF8003C24326E3F503D20336E40C034F041C0B8
:108F080035F07CEC39F038C02EF039C02FF03AC07B
:108F180030F03BC031F03E503C5C326E3F503D5823
:108F2800336E40C034F041C035F07CEC39F038C0C5
:108F38002EF039C02FF03E503A24306E3F503B207F
:108F4800316E3CC032F03DC033F040C034F041C017
:108F580035F07CEC39F038C02EF039C02FF03E5097
:108F68003A5C306E3F503B58316E3CC032F03DC0E9
:108F780033F040C034F041C035F07CEC39F091EF6B
:108F880048F049BECAEF47F0CCEF47F0D7EF47F0BB
:108F98004C06D8A04D06020E4626000E4722465023
:108FA8004826475049224A4A4B2A020E4426000EB8
:108FB8004522445048264550492238C02EF039C031
:108FC8002FF04A503A24306E4B503B20316E4C50B3
:108FD8003C24326E4D503D20336E40C034F041C0C9
:108FE80035F07CEC39F038C02EF039C02FF04A50FB
:108FF8003A5C306E4B503B58316E4C503C24326ECC
:109008004D503D20336E40C034F041C035F07CEC0B
:1090180039F038C02EF039C02FF04A503A24306E5B
:109028004B503B20316E4C503C5C326E4D503D589D
:10903800336E40C034F041C035F07CEC39F038C0B4
:109048002EF039C02FF04A503A5C306E4B503B58E6
:10905800316E4C503C5C326E4D503D58336E40C0C2
:1090680034F041C035F07CEC39F038C02EF039C00E
:109078002FF04C503A24306E4D503B20316E4A5000
:109088003C24326E4B503D20336E40C034F041C01A
:1090980035F07CEC39F038C02EF039C02FF04C5048
:1090A8003A5C306E4D503B58316E4A503C24326E1B
:1090B8004B503D20336E40C034F041C035F07CEC5D
:1090C80039F038C02EF039C02FF04C503A24306EA9
:1090D8004D503B20316E4A503C5C326E4B503D58EF
:1090E800336E40C034F041C035F07CEC39F038C004
:1090F8002EF039C02FF04C503A5C306E4D503B5832
:10910800316E4A503C5C326E4B503D58336E40C015
:1091180034F041C035F07CEC39F04C504A5C4B508F
:10912800800A426E4D50800A4258D8A09EEF48F0FF
:10913800A0EF48F0C5EF47F0120000016E51D96E5C
:10914800DA6ADE50705D7151800A7D6FDE50800AE8
:109158007D59D8B0B2EF48F0B4EF48F0ABEF4AF021
:109168006E51D96EDA6A020ED926DE50725D7351DD
:10917800800A7D6FDE50800A7D59D8B0C6EF48F06E
:10918800C8EF48F0ABEF4AF07951060D6F00CCFFFD
:109198007BF06F00D0FF7CF070517B2771517C23EE
:1091A800FF0E7B25FF0E7C21800BD8A4DEEF48F054
:1091B800E0EF48F0ABEF4AF07A51080D6F00CCFFB2
:1091C8007BF06F00D0FF7CF072517B2773517C23BA
:1091D800FF0E7B25FF0E7C21800BD8B4F6EF48F0FC
:1091E800F8EF48F0FAEF48F0ABEF4AF0200E746160
:1091F80000EF49F002EF49F004EF49F0200E746FD8
:109208007E0E74650AEF49F00CEF49F00EEF49F055
:109218007E0E746F896B89C07BF07C6B7BBF7C078B
:109228007451050DE90EF3247D6F9D0EF4207E6FB9
:109238007B517D257F6F7C517E21806F600E7F255D
:10924800816FFF0E8021826F600007F2F6FF6000D9
:109258000BF2F7FFF86A08006F00D4FF87F0886BFD
:1092680087A139EF49F03BEF49F0B3EF49F07905B1
:10927800D8A441EF49F043EF49F067EF49F07A0588
:10928800D8A449EF49F04BEF49F067EF49F06EC0B9
:109298002EF06FC02FF070518925306E000E89BFF7
:1092A800FF0E7121316E72518825326E000E88BF13
:1092B800FF0E7321336E75C034F076C035F07CEC48
:1092C80039F035EF4AF06EC060F06FC061F0795147
:1092D8007B6F7C6B89C07DF07E6B7DBF7E077B5189
:1092E8007D036F00CCFF7FF06F00D0FF80F07E031E
:1092F800F35080277C517D03F350802770517F25E0
:10930800626F71518021636F7A51816F826B88C05F
:1093180083F0846B83BF8407815183036F00CCFF84
:1093280085F06F00D0FF86F08403F35086278251C2
:109338008303F350862772518525646F7351862104
:10934800656F79C066F0676B7AC068F0696B75C045
:109358006AF076C06BF0E7EC3CF035EF4AF07551F7
:10936800771909E176517819D8B4BDEF49F0BFEF04
:1093780049F035EF4AF07905D8A4C5EF49F0C7EFB1
:1093880049F0EBEF49F07A05D8A4CDEF49F0CFEFDB
:1093980049F0EBEF49F06EC02EF06FC02FF070511E
:1093A8008925306E000E89BFFF0E7121316E725112
:1093B8008825326E000E88BFFF0E7321336E77C08A
:1093C80034F078C035F07CEC39F035EF4AF06EC0F7
:1093D80060F06FC061F079517B6F7C6B89C07DF064
:1093E8007E6B7DBF7E077B517D036F00CCFF7FF0D6
:1093F8006F00D0FF80F07E03F35080277C517D03FF
:10940800F350802770517F25626F71518021636FFF
:109418007A51816F826B88C083F0846B83BF840725
:10942800815183036F00CCFF85F06F00D0FF86F079
:109438008403F350862782518303F35086277251A1
:109448008525646F73518621656F79C066F0676BF7
:109458007AC068F0696B77C06AF078C06BF0E7ECA7
:109468003CF00001882BD89087338851800A780F08
:10947800D8A041EF4AF043EF4AF034EF49F0892B86
:109488008951800A7B0FD8A04CEF4AF04EEF4AF082
:109498000FEF49F07551771909E176517819D8B469
:1094A80058EF4AF05AEF4AF0ABEF4AF07905D8A4E2
:1094B80060EF4AF062EF4AF084EF4AF07A05D8A4E8
:1094C80068EF4AF06AEF4AF084EF4AF06EC051F054
:1094D8006FC052F0050E7025536E000E7121546E48
:1094E80072C055F073C056F0000E586E080E576ED5
:1094F80077C059F078C05AF049EC39F0ABEF4AF030
:109508006EC060F06FC061F07951050D6F00CCFF3F
:109518007BF06F00D0FF7CF070517B25626F71513A
:109528007C21636F72C064F073C065F079C066F027
:10953800676B7A51080D6F00CCFF68F06F00D0FFA1
:1095480069F077C06AF078C06BF0E7EC3CF0120085
:10955800C6EC36F0090E0001A56F1E0EA46FE40ECE
:10956800E82EFED7A42FFCD7A52FFAD70000000EAF
:1095780079EC3CF0C70E066E6AEC3AF0C70E196E2D
:109588001AEC42F0C70E166EF80E186E000E176E23
:1095980068EC38F0290E0001A56F960EA46F7F0EB7
:1095A800E82EFED7A42FFCD7A52FFAD7C70E166E24
:1095B800070E186EE00E176E68EC38F0290E0001E1
:1095C800A56F960EA46F7F0EE82EFED7A42FFCD7AA
:1095D800A52FFAD7C70E166E000E186E1F0E176E3F
:1095E80068EC38F0290E0001A56F960EA46F7F0E67
:1095F800E82EFED7A42FFCD7A52FFAD7C70E166ED4
:10960800FF0E186E176868EC38F0290E0001A56F78
:10961800960EA46F7F0EE82EFED7A42FFCD7A52F99
:10962800FAD7C70E166E000E186E000E176E68EC8D
:1096380038F0290E0001A56F960EA46F7F0EE82E54
:10964800FED7A42FFCD7A52FFAD7C70E0001606F4D
:10965800C70E616F000E636F000E626F000E656FBC
:10966800000E646F000E676F200E666F000E696F44
:10967800400E686FF80E6B6F000E6A6FE7EC3CF0F7
:10968800C70E0001606FC70E616F000E636F200E7A
:10969800626F000E656F000E646F000E676F200E1C
:1096A800666F000E696F400E686F070E6B6FE00EF5
:1096B8006A6FE7EC3CF0C70E0001606FC70E616F80
:1096C800000E636F400E626F000E656F000E646FD0
:1096D800000E676F200E666F000E696F400E686F90
:1096E800000E6B6F1F0E6A6FE7EC3CF0520E000124
:1096F800A56F2B0EA46F000EE82EFED7A42FFCD763
:10970800A52FFAD70000C70E166E000E186E000EB1
:10971800176E68EC38F0C70E516E000E536E000ECF
:10972800526E000E556E000E546E000E576E5F0E90
:10973800566E000E596E3F0E586EFF0E5B6E5A68DD
:109748001CEC45F0C70E516E000E536E5F0E526E44
:10975800000E556E000E546E000E576E000E566EBB
:10976800000E596E3F0E586EFF0E5B6E5A681CEC69
:1097780045F0C70E0001606FC70E616F000E636F82
:10978800000E626F000E656F000E646F000E676F4B
:10979800600E666F000E696F400E686FFF0E6B6F8C
:1097A800E00E6A6F0EEC3CF0520E0001A56F2B0E16
:1097B800A46F000EE82EFED7A42FFCD7A52FFAD74A
:1097C8000000C70E166E000E186E000E176E68ECBD
:1097D80038F0C70E016E010E026EF3EC36F0C70EBC
:1097E800016EFF0E036E02686CEC37F0C70E0001C5
:1097F8009C6FC70E9D6F000E9F6F000E9E6F000E30
:10980800A16F000EA06FCE0EA26FFF0EA36F55ECD6
:1098180037F0C70E016EFF0E036EE00E026E000EEB
:10982800056E1F0E046E83EC37F0C70E00019C6FA7
:10983800C70E9D6F000E9F6F000E9E6F000EA16FEA
:10984800100EA06FDA0EA26FFF0EA36F55EC37F063
:10985800C70E016E020E026EF3EC36F0C70E016EF3
:10986800070E036EE00E026E6CEC37F0C70E0001B7
:109878009C6FC70E9D6F000E9F6F0A0E9E6F000EA5
:10988800A16F230EA06FEF0EA26FFF0EA36F55EC12
:1098980037F0A30E0001A56F570EA46F020EE82E35
:1098A800FED7A42FFCD7A52FFAD70000C70E166E37
:1098B800000E186E000E176E68EC38F0C70E000127
:1098C800606FC70E616F000E636F050E626F000E4A
:1098D800656F050E646F000E676F280E666F000EC9
:1098E800696F190E686FF80E6B6F000E6A6F0EECD9
:1098F8003CF0C70E0001606FC70E616F000E636F0A
:10990800320E626F000E656F050E646F000E676F92
:10991800280E666F000E696F190E686F070E6B6F61
:10992800E00E6A6FE7EC3CF0C70E386EC70E396E72
:10993800000E3B6E190E3A6E000E3D6E2D0E3C6EFB
:10994800000E3F6E0F0E3E6E000E416E1F0E406EF3
:1099580050EC47F0C70E0001776FC70E786F000E06
:109968007A6F460E796F000E7C6F2D0E7B6F000E9E
:109978007E6F0F0E7D6FFF0E806FE00E7F6FEAEC3B
:1099880039F0A30E0001A56F570EA46F020EE82E42
:10999800FED7A42FFCD7A52FFAD70000C70E166E46
:1099A800000E186E000E176E68EC38F0000E0001FD
:1099B800BE6F000EBD6FBEBFEBEF4CF0BE5109E1AC
:1099C800600EBD5DD8A0EBEF4CF0EDEF4CF0EFEF83
:1099D8004CF062EF4DF0000EC06F000EBF6FC0BFBD
:1099E800FFEF4CF0C05109E1400EBF5DD8A0FFEF7A
:1099F8004CF001EF4DF003EF4DF050EF4DF0BDC0CE
:109A080001F0BEC002F0000E046E020E036EADEC53
:109A18003BF001C0A4F002C0A5F0010E0001A4179C
:109A2800000EA517BFC001F0C0C002F0000E046E02
:109A3800020E036EADEC3BF0010E0116000E02168D
:109A480001500001A41909E10250A519D8B42FEF5B
:109A58004DF031EF4DF037EF4DF0000EB96F000EBD
:109A6800B86F39EF4DF0B869B969C70E206EBDC03F
:109A780021F0BEC022F0BFC023F0C0C024F0B8C09F
:109A880025F0B9C026F0D0EC3EF0020E0001BF2749
:109A9800000EC023F3EF4CF0020EBD27000EBE23CC
:109AA800BEBF60EF4DF0BE5109E1600EBD5DD8A0AC
:109AB80060EF4DF062EF4DF0EFEF4CF0520E000109
:109AC800A56F2B0EA46F000EE82EFED7A42FFCD78F
:109AD800A52FFAD70000C70E2E6EC70E2F6E000EE8
:109AE800316E000E306E000E336E000E326ECE0EEA
:109AF800346ECF0E356E000E376E600E366E000E69
:109B0800396E400E386E47EC3EF0A30E0001A56F8B
:109B1800570EA46F020EE82EFED7A42FFCD7A52F50
:109B2800FAD70000A30E0001A56F570EA46F020E0E
:109B3800E82EFED7A42FFCD7A52FFAD70000C70E12
:109B48002E6EC70E2F6E000E316E000E306E000E98
:109B5800336E000E326ECE0E346E9F0E356E000ED2
:109B6800376E600E366E000E396E400E386E47EC5A
:109B78003EF0A30E0001A56F570EA46F020EE82E4B
:109B8800FED7A42FFCD7A52FFAD70000A30E0001FB
:109B9800A56F570EA46F020EE82EFED7A42FFCD790
:109BA800A52FFAD70000C70E166E000E186E000E0D
:109BB800176E68EC38F0C70E016E010E026EF3ECFA
:109BC80036F0C70E016EFF0E036E02686CEC37F0BC
:109BD800C70E00019C6FC70E9D6F000E9F6F190E78
:109BE8009E6F000EA16F000EA06FE60EA26FFF0E13
:109BF800A36F55EC37F0000E0001BC6F000EBB6F71
:109C0800BA6BC70E606FC70E616F000E636F0A0EE6
:109C1800626F000E656F280E646F000E676F4C0E42
:109C2800666F000E696F0A0E686FFF0E6B6F6A69C8
:109C38000EEC3CF0BBBA23EF4EF026EF4EF0010ECF
:109C480027EF4EF0000EFF0A0001A46FA43BA447C3
:109C5800BB50A419DF0BA419BB6EA60E316EF50E0E
:109C6800326EFF0E336EBBC034F0BCC035F0E9EC89
:109C780037F0C70E0001606FC70E616F000E636F8B
:109C88001E0E626F000E656F140E646F000E676F14
:109C9800240E666F000E696F080E686F000E6B6FFA
:109CA800000E6A6FE7EC3CF0C70E016E070E036EFC
:109CB80002686CEC37F0C70E00019C6FC70E9D6FF1
:109CC800000E9F6F1E0E9E6F000EA16F140EA06FE8
:109CD800A60EA26FA36B55EC37F0BBC001F0BCC059
:109CE80002F0000E046E640E036EE4EC38F00150CE
:109CF8000001BA6FBA51480D6F00CCFF01F06F0038
:109D0800D0FF02F0000E046E640E036EADEC3BF063
:109D1800010E01240001B66F000E0220B76FC70EB6
:109D2800606FC70E616F000E636F0C0E626F000EDE
:109D3800656F2A0E646FB6C066F0B7C067F0000E94
:109D4800696F060E686F070E6B6FE00E6A6FE7ECBF
:109D58003CF0630E0001BA19D8A4B5EF4EF0B7EF86
:109D68004EF0D1EF4EF0C70E606FC70E616F000E58
:109D7800636F0C0E626F000E656F2A0E646F000E23
:109D8800676F480E666F000E696F060E686F000EEB
:109D98006B6F000E6A6FE7EC3CF00001BB4BBC2B0D
:109DA800100EBB5D270EBC59D8A0DDEF4EF0DFEFDB
:109DB8004EF0E3EF4EF0000EBC6F000EBB6F090EC5
:109DC8000001A56F1E0EA46FE40EE82EFED7A42F87
:109DD800FCD7A52FFAD700001EEF4EF0FEEF7FF05C
:109DE80000000000000000005F00000007000700FE
:109DF800147F147F14242A7F2A12231308646236DE
:109E0800495522500005030000001C224100004172
:109E1800221C00082A1C2A0808083E08080050309E
:109E28000000080808080800606000002010080406
:109E3800023E5149453E00427F4000426151494639
:109E48002141454B311814127F1027454545393CAF
:109E58004A494930017109050336494949360649D5
:109E680049291E0036360000005636000000081446
:109E78002241141414141441221408000201510937
:109E880006324979413E7E1111117E7F4949493692
:109E98003E414141227F4141221C7F494949417F3E
:109EA800090901013E414151327F0808087F0041FC
:109EB8007F41002040413F017F081422417F4040FC
:109EC80040407F0204027F7F0408107F3E414141E9
:109ED8003E7F090909063E4151215E7F091929463D
:109EE800464949493101017F01013F4040403F1F38
:109EF8002040201F7F2018207F6314081463030468
:109F0800780403615149454300007F414102040838
:109F1800102041417F0000040201020440404040FB
:109F280040000102040020545454787F48444438C7
:109F38003844444420384444487F3854545418081A
:109F48007E090102081454543C7F08040478004434
:109F58007D40002040443D00007F10284400417FA0
:109F680040007C041804787C08040478384444448D
:109F7800387C14141408081414187C7C0804040889
:109F88004854545420043F4440203C4040207C1C0A
:109F98002040201C3C4030403C44281028440C50B1
:109FA80050503C4464544C44000836410000007F43
:109FB8000000004136080008082A1C08081C2A0866
:109FC8000802400005004F5B4F5B4F5B6F5B6F5BA8
:109FD8006F5B6F5B6F5B8F636F5B6F634E5BED4AAD
:109FE8006F5B8B42CC4ACC4A2E534E5B4E5B6F6301
:109FF8004E5B4E634E5B4E5B2D5B0D5BED52AC4A88
:10A00800293A2932EC52CC4A6E63AB4AE9310D53F6
:10A018006E632D5B2D5BEC52CC52CC522D5B293AF2
:10A02800093A4A3A293A293A6A426A427284569D5A
:10A038001595B48494843274CC42AB4A4621C83115
:10A04800E839A731A731C731C731C831C831E8313C
:10A05800E831C831C831E939E939E939093AE93922
:10A068000942293A293A2A422A4229422A424A429C
:10A078002942093A093AE839C831C831C831A73103
:10A08800A7318731A7314F5B4F5B4F5B4F5B4F5B0E
:10A098006F5B6F5B6F5B6F636F636F634F5BED52FB
:10A0A8006F5B8C42AC42CC4A0E534E5B4E5B6F6387
:10A0B8006F636E634E632E5B2D5B0D5B0D53CC4A55
:10A0C8002A3A293AEC4AEC4A2D5B8F638B4AC82915
:10A0D8000D534E630D5BED52CC4AEC520D538B4A37
:10A0E800E931293A093A293A493A4A422D5BB7AD4A
:10A0F800D8ADB8AD769DF5948F634A3A6621A72905
:10A10800C8318729A731C731C731C731C831E831CC
:10A11800E831C831C831C839C831C831C831C8393F
:10A12800C839E831E831E839C831E839E839093A55
:10A13800093A093A093A2942294229422942294237
:10A148002942294229426F5B4F5B4F5B4F5B4F5B54
:10A158006F5B6F5B6F5B6F6390638F638F632E536F
:10A168004F5BCC4A8B42CC4A0D536F634E5B6F6397
:10A178006F636E634E632E5B2D5B0D5BED52AC4AD5
:10A188002A3A0932AB4ACC4A2E5B6F636E634A3A6D
:10A19800C829EC522D5BCC52EC52AC4A0D5B8B4279
:10A1A8000932293A293A09322A3AAB4A4A42B48C46
:10A1B80076A5ED52F49497A5F4944A3A461987295E
:10A1C800A73187298729A729A729A731A831C8290D
:10A1D800C829C831A831C831C831C831C831C831D7
:10A1E800C831C731C731C831C831C831C831C831A1
:10A1F800C831C831C831E839C839E839E839E839E7
:10A20800E839E839E8396F5B6F5B4F5B4F5B6F5B31
:10A218006F5B6F5B8F636F6390638F6390634F5B5C
:10A228002E5BED526B42CC4AED528F636F5B6F63CE
:10A238006F634E634E634E5B2D5B0D5B0D53AC4AF3
:10A248002A3A09328B42CC4AED524E638F636E63D1
:10A25800093AC829CC52EC52CC4AAC4ACC52CC521E
:10A26800E8314A3A293A093A4A428B4ACC4A2D5BA4
:10A278000932C408C831B7ADD8AD6E632519872136
:10A28800E83166218729A729A729A731A731C72936
:10A29800C729A729A731A831A831A731A731A731E4
:10A2A800A831C731C731A731A831C831C831C83141
:10A2B800C831C831C831C831C831C831C831C831CE
:10A2C800C831C731C7316F5B6F5B4F5B4F5B6F5BEB
:10A2D8006F5B6F5B6F5B8F638F639063B0638F633C
:10A2E8000E53ED528B42AC4ACD4A8F638F636F6336
:10A2F8006F634E634E634E5B2E5B2D5B0D53AC4A12
:10A308004A3A093A6B428B42ED524E634E5B6F6399
:10A318004E63E831E831CC4ACC52AB4A8B4A0D5BEC
:10A328004A3A093A293A293A093A8B424E5B6B4232
:10A338000519662905196A42D8B576A5A7292619E7
:10A34800C8296721A8298729A729A731A829A729C2
:10A35800A729A729A731A731A731A729A729A73155
:10A36800A731A731A7318729A731A731A831A8314B
:10A37800A831C731C731A731A731A731A731A731D4
:10A38800A731A731A7318F636F5B4F5B4F5B6F5B63
:10A398006F5B6F5B6F5B8F636F63B0638F63B0637B
:10A3A8002E53ED4A8B42AC42CC4A4F5B90636F63AD
:10A3B8006F634E634E634E5B2E5B2E5B0D53AC4A50
:10A3C8004A3A093A4A3A093A2D5B4E5B4E5B4E5B74
:10A3D8004E630D53E831E931EC52CC528B42EC52CA
:10A3E800CC5209324A3A09326B424A422D5BC83193
:10A3F80045218731A73125216A4A19BEF073E41037
:10A40800C83167218721872187298729A729A72973
:10A41800A729A729A731A731A731A729A7298731B4
:10A4280087318731A731A731A731A731A731A731A4
:10A438008729A729A729A731A731A731A731A7318C
:10A44800A731A731A73190636F5B4F5B4F5B6F5BA1
:10A458004F5B4F5B6F5B6F636F5B90638F63B06342
:10A468006F5BCC4A8B42AC42AC4A0D5390636F632E
:10A478006F634E634E634E5B2D5B2D5B0D53AC4A91
:10A488004A3AE9310932293A8B4A2D5B2E5B2E5B19
:10A49800ED522D5BAC4AC8294A3AED528B4ACC5250
:10A4A800CC522A3A4A422A3A2A3A8B4AEC5A662924
:10A4B8004521A7314A4AC7390419D394D7ADE931A0
:10A4C8006621A82967216721672187298729872984
:10A4D8008729A729A729A731A729A729A729A73104
:10A4E800A731A731A731A731A729A729A729A729C4
:10A4F800A731A731A7318731873187318729872944
:10A50800872987298729B06390636F5B6F5B6F5BCF
:10A518004F5B4F5B6F5B6F5B4F5B8F638F63B063AA
:10A52800B063CC4AAC42AC42AC42CC4A8F636F6356
:10A538006F634E634E5B2E5B2D5B2D5B0D53AC4AF8
:10A548004A420932E9314A42293AAC4A2D5BED5276
:10A558000D5BEC52EC526B4287216A422E5BAB4A90
:10A56800CC52093A4A424A422A3A6B428B4A462915
:10A57800452986316A52494A04218A4A7AC6317C79
:10A588002511872146196721872187298729862947
:10A598008629862986298629662966218629A72962
:10A5A800A731A731A731A731A731A729A729A729FB
:10A5B800A729A729872987298731873187298729C3
:10A5C8008731A7318731F16B906390638F636F5B3D
:10A5D8006F5B6F5B4F5B6F5B6F638F63B063B06B79
:10A5E800D06BED528B42AC428C428C422E5B8F6317
:10A5F8004E5B6F632E5B4E5B2D5B0D53ED52CC4A69
:10A608004A3AE931E9316A4209328B420D5BEC5230
:10A61800CC52EC52AB4AAB4A6A428729293AED52EE
:10A628008B4A4A422A3A6B424A426B42AC528631C2
:10A638004529A739E739494A66290419149DB7AD50
:10A648004A3A46196721662166218729862966299B
:10A6580066298631E7392942AB524D63293A872961
:10A668008731C8318731A731A731A7318729A72971
:10A67800A731A7298729862986298629862986290F
:10A68800862986298629D06BD16BB0636F5B6F5B97
:10A698006F5B4F5B4F5B4E5B6F5B8F63B063B06B01
:10A6A800D06B0E536B3A8B428C428C42ED526F63E7
:10A6B8004E5B2E5B2E5B2D5B2D5B0D53EC52AC4A33
:10A6C8004A3AE931E9312A3A293A6A42CC4AEC5203
:10A6D800CC4AAB4AAB4A8B428B4A4A426721C831C3
:10A6E800CC52CC4A2A3A8B426A426A42EC5A6629D0
:10A6F800C7396631C73908422421C318AE7318BE5A
:10A70800117C2519462146218629462145212529DE
:10A71800E8396A520842C7316521CB522D63462178
:10A72800A7318629862987298729A729A731A7310B
:10A73800A729872986298629862986298629862977
:10A748006629662966298F63B06390636F5B6F5BC8
:10A758006F5B6F5B4E5B2E5B4F5B6F63B063B06B81
:10A76800D06B4E5B6B3A6B428C42CC4A8B424E5B51
:10A778006F632E5B2E5B2D5B2D5B0D5BED52CC4A20
:10A788006A420932C831C831E8318B42CC4ACC52CE
:10A79800CC4ACC528B4A8B428B4A4A422A3A872966
:10A7A800A729AB4A4A424A426A428B4A4A42662928
:10A7B800E839A6310842863104212421CF73D7B560
:10A7C800B3946A42E418452145214521E8416A527B
:10A7D80008426631452945210419E418083A6629D2
:10A7E80086298629872987298729862986298629E6
:10A7F8008629862986298629862966296629662939
:10A808006629662966294F5B8F636F5B90636F5B70
:10A818004E5B6F5B4E5B2E5B4E5B6F5BB063B06BEA
:10A82800D16B8F636B426B428B422E5B6B422E5B0C
:10A838004E5B2E5B2D5B0D5B0D53EC52CC52AB4A3D
:10A848006A42E931C829C829C8314A426A426B427A
:10A858006A42AB4A8B426A426A428B42093AC83121
:10A86800A72966214A3AAB4A8B4A8B4A083AE83903
:10A87800C7398631C73965312421A63155AD3CE742
:10A88800F7BD31842421620825218A52E741042931
:10A89800453186318631452924216529E7396621E4
:10A8A80066296629462966298729A72986298629A6
:10A8B80086298629862966296629662966296629B8
:10A8C8006629662966292E53B0638F636F5B6F5BB9
:10A8D8004E5B4F5B4E5B2E5B4E5B6F5BB063B06B4A
:10A8E800D06BB06B8C424A3A6B424E5BAC4ACC4A56
:10A8F8002D5B2D5B0D530D53EC52ED52EC52AC4ACF
:10A908004A42E931C829E831E931C831A729C829BB
:10A91800A729E8314A3A8B4A6B42093AC829C83113
:10A92800E831C8296621293ACC528B4A6A4A6629F5
:10A9380087316629662945296529AE73718C75ADFD
:10A948009DF79DF738C6F39C4C63A631E32045314B
:10A95800E849A73986314529E318C731E739452140
:10A968006621662966294521662986296629662978
:10A9780086298629862966296629662966296629F7
:10A98800662966296629CD4AD16BB0632E536F5B61
:10A998004F5B2E534E5B2E5B4E5B4F5B8F63B063FA
:10A9A800D06BB06BCC4A4A3A4A3A0D532E5B8B4275
:10A9B8002E5B0D5BED520D53CC52CC4A8B4A2A3A92
:10A9C800E931E9310932E8312A3AAB4AEC52AB4A6B
:10A9D8002A3AC831A729E931093AA829A729E8312B
:10A9E8000932C83187296621E831CC528A4AE839C8
:10A9F8004529A7316629A7312842CE7BEB5AEA5A66
:10AA0800F2A495B554AD37CE508C24290321864144
:10AA1800E8496639653145290419E8394521452150
:10AA2800251945214529452166298629862986290A
:10AA38008629862986296629662966296629662936
:10AA48006629662966296B3A9063B0632E530E53C4
:10AA58002E530E532E532E5B2E5B6F5B6F639063EA
:10AA6800B06BB063ED4A2A3A4A3ACC4A4E5B6B4225
:10AA7800ED52CC52AC4AAB4A6A42293AE931E83144
:10AA8800293A6B428B4AAC4AEC524E63D0736E63E0
:10AA98002D5BEC528B4AC8318729A729C729A729DA
:10AAA800E831293AE83987298629E831AB52EC5A46
:10AAB800CB52662986294942CF7BEB5A694A89528B
:10AAC800895A4C73EA628D732F8485310429E849C9
:10AAD800C74904296531E41845294D6BAB524942F1
:10AAE800C73145290421041904192521662166293D
:10AAF80066296629662966296629662966298629B6
:10AB08006629662966296B3A2E53D16B6F5BCC4A4E
:10AB1800ED4A2E532E532E5B2E5B6F5B6F63906353
:10AB2800B063B0630D532A3A2A3A8B422E5B6B42CC
:10AB38008B426A42493A093209324A3A8B4A0D53E2
:10AB48006F638F6B4E63AB4AEC52EC522D5B0D5B1F
:10AB58002D5B0C5B2D5B2D5B6A428729A729C831C9
:10AB6800C829293A4A42A729A729662166292D63B7
:10AB78005184C731C7314942694A694A2842E74185
:10AB8800C64148522B6B8D738D7385310321084A5A
:10AB9800C749663924290421C739E739694AAB4AC4
:10ABA800EC524D634D6B2D63AA4A083AA6294521FC
:10ABB8000419041945214521452166296629862954
:10ABC800862966296629AC4ACD4A1274D06B0E5381
:10ABD800AC424F5B2E532E534F5B6F5B6F5B6F5BCB
:10ABE8006F63B0630D534A3A4A3A4A3A6B422A3A7B
:10ABF8004A426A426A42EC4ACC52EC5A4D636E634E
:10AC08008F638F6B2E5BCC528B4ACC522D632D5B9E
:10AC18000C53AB4A8A4ACF73AF6B493AA729A72985
:10AC2800A831E9312A3AE931872987294521083AA3
:10AC38000B6328424942C731652185218629652948
:10AC48006629A639E741308C13A5AA5A653104292B
:10AC5800252945290421E7392842E318041904194C
:10AC680045218629E8398A4A0C5BAE73EF7BEF7B76
:10AC78008E6BEC5A4942A63145210419E418242167
:10AC88004529452945290E536B42F16BB0636F5B2B
:10AC9800ED4A6F5BD0634F5B0E534E5B6F5B6F6328
:10ACA8004F5B6F630D53093A093209322A326B42FE
:10ACB8006A3AEC528E63AF634E5B0D5BCB52EC5A33
:10ACC8006E6B6F6B4E63CC52AC52CC52ED524D5BF7
:10ACD8002D5BAB4ACB5230848A52AE73494A452920
:10ACE80025296629A731A73187318629CB5A6D7363
:10ACF800CA5AC739494A4A42293A2419452187314B
:10AD0800252125290421084271948A5245290421C4
:10AD18002521663125214D6B863124216521252188
:10AD28000419251945210419242125216529E83903
:10AD3800AA524D63AE73EF7BCF736D6BCB5A28422B
:10AD48008631252104216F5B4B3A9063F16B6F5B71
:10AD58002E530E5312744F5B4F5B4E5B4F5B2E5B53
:10AD68006F5B0E534B3A09324A3A4A3AAB426F6329
:10AD78000D530E5390634E5B6E63EC52CB52AB5A3D
:10AD8800AB622D632D630C5BAB4A8B4A0D5B2E5B6C
:10AD98002D5BAB528A520F84509433B54F9C8C83F1
:10ADA800CC8BAC8B8C7B885A853185314C6B9194DC
:10ADB800A631C7398B520942C73144216529662912
:10ADC8004529452165294529494AC73924210421AE
:10ADD800C31825216A4A8A4AE418252125214521D4
:10ADE80045212519251925212521452145214521BB
:10ADF800252125212521A731E8396A4A2D63AF731A
:10AE0800CF738E734D6BB0636B3AED4A32746F5BE0
:10AE18004F5BED4A6F5BF16B4F5B2E532E530E5316
:10AE2800ED4A0A322A3AAC4A4E5B0D534D5BAF6B82
:10AE38004E5B0D538F636E63EC5A8B52CB6A4C8317
:10AE48008D930B7B0B6B0C63AA4ACC520D53ED5AB6
:10AE5800CC52CC5228420F8C78DE15DEF4DD75E634
:10AE680075E6D6F614D611B56F9C6C73E6418C73F3
:10AE7800AA5A294A0942A83945298631C739652974
:10AE880025216629E839C739A7314529A731AB52A9
:10AE9800872987294A42662945216621251945219E
:10AEA8004521051925192521241925212521252183
:10AEB80025214521662925214521252125210421F2
:10AEC8006629E8396A4AD16BAC426B3AF16BD16BAF
:10AED8006F5B0D538C42F16BB0630D53ED4ACD4A55
:10AEE800E9310A32AC4AD06BF1730D5BED5A4E630F
:10AEF8006F632D5B6E5B6E630C638A6A8CA3EDC314
:10AF0800ECC3CCB30A8BAA62AB528B4ACC52AC4A84
:10AF1800CC526A4AAA5254B516D62E9C31BD75E653
:10AF280034DED2D550C5CFB410B573BD12B5D1A497
:10AF38004C73284AE84187318731CB5A494A083A45
:10AF4800A731662986290842A63186315184F07BCB
:10AF5800A7294621251946214621451946212519A3
:10AF68002521462146214521452145212521252107
:10AF78002519041904194521452125212521452193
:10AF8800452125212521D16B2E532A32D16BF16B16
:10AF98006F5B2E538C42ED4A12740E538B420A3269
:10AFA800E931AC4A4F5BF16BD16B2E63CD5A0D631F
:10AFB8000D5B2D5B8E634E638A5A2B8B2EC4ECCBB4
:10AFC8004DDC8EDCEDB3CB6AAB526A428B4A8B4ABE
:10AFD8004942284214A537CEB4BD6FA48FA451BDF1
:10AFE80095EE13DE30BD71C530BD72C555DE97E6EE
:10AFF800D5C50B6B66314631A731EF7B0F7CEC5A18
:10B008008A4A6521A629E7396529083A19BE0D5BE0
:10B018002519A72987298721461946212519251980
:10B0280005190519051925192521452145216629DF
:10B038006629462945212521252105210521252186
:10B04800252125212521D16BB0632A324F5B12744B
:10B05800B0634E5BED4A4B3A0E53ED4A09328821F4
:10B068006B42AC4AD16B1174D06B4E5BAC520D5B2A
:10B078000D5B0D534E5B4E63CB622B8B11D552E5A6
:10B0880032E510E52EBCAA624A424A426A4A349D19
:10B0980038C659CEFBDE99D616C6F5C536CEB3C529
:10B0A80011B5D7EE34DE51C5F3D571C534DE55DEA2
:10B0B800D8EE33B504290421494AEB5A55A5118421
:10B0C800083A2942863145212421083A0C5BD49458
:10B0D800093A4621872967216721662125194521D3
:10B0E80025210419252125212519041904190419D4
:10B0F8002521252125216629462945212521252186
:10B10800242124212421F16BD16B6B3A8B42537C8F
:10B11800D16B6F5BCD4A4B3A8C426B3AA8212A3AE5
:10B128006B429063F16BF16BD16B6F63CC52CC5275
:10B138000D5BCC4A2D5B8F6BEC62AA722FAC90C46E
:10B148000DB48BABACA3695ACB52518439C67DEF91
:10B158003CE71BE7FADEB9D616C6D9D6B8DED8EE74
:10B1680035DE35DEF7F6B2CD71C551C571C513DED2
:10B1780072C512B54431452966292419241986292E
:10B188004529E739C73945292842F07B2519AB4AB3
:10B19800D0736721A829A729A729662166214521F7
:10B1A800252105212521252125212521252125198F
:10B1B800041904190419E418041925214521452105
:10B1C8004521452125211274D16BCD4A4B3A127481
:10B1D800F16B8F63ED4A4B3A2A326B3AE9294B3AC5
:10B1E800CD4AF16BB06BD06BB06B6F630D53AC4A4B
:10B1F800CC4AEC4ACB4A8E634D5BCB62CB726B9BDD
:10B208008CA38C9B896AAA5A38BE3DE799D658CE3A
:10B2180099D699D6B9DE99D6D9DE57D673B5F0AC9A
:10B22800F4D535E675EE75E651C50FBD51C5D2D5D5
:10B238006EA46B7B232945296529652986296629FA
:10B2480086310842A63124216D6BE839C310A30862
:10B25800AC4A6B428729A829872187298629452155
:10B2680025212521252125192519251925192519CE
:10B278000419041904190419041904190419E418FF
:10B28800E41804190419127412742E53E9299063EE
:10B298003274B0630D534A3AE929E929E9296B3A2E
:10B2A800ED4AD16BB06BB06BB06B6F630E5BCC4A81
:10B2B800AC4ACB4AAB4A6E5B4E5B0D5B8B5A6972EC
:10B2C800897A686A4C7BDADE3CE7BAD658C617C674
:10B2D80078CE16C657CE57D6B4BD32AD11B511B516
:10B2E800F0BC0CA410BD54E6D2D5CFB471C5B2CD14
:10B2F8004A7B064A65314529042185296529A631F5
:10B30800A631284A0842CE7B694A6529A310A310B2
:10B318000519293AC8298729A7298629662966216E
:10B3280066214629252125192519251925192519A3
:10B3380004190419041924192419241904190419BD
:10B34800E418E318E418127432749063E9290E5370
:10B35800537CD06B2E5B4B3AC829A829C8298C424C
:10B368002E53D16BB06B8F6B6F636F632E5BEC5298
:10B37800AC4AAB4A8B4A0D5B6F630D5BED5A8A5240
:10B38800084AAE83BADEFBE699CE3CE799CEF6BD15
:10B3980057CE77D636CEF5C531B58FA4D0AC4EA4EE
:10B3A800CC93EC9B8A93F2DDB1D54DAC30BDB2C5E0
:10B3B8008B83E649A641E841863185314429242119
:10B3C800C6390742AA5A75ADB6B5518C4942041917
:10B3D800E5184621E839A731872986298629452194
:10B3E8006629462125214521452125192519251993
:10B3F8002419252125210419241924212419041983
:10B4080004190419041932741274F16B4B3A6B3A2B
:10B41800537CF1734F5B8B42C929A821C9296B3A28
:10B428006F5BF16BB0636F634F636F5B6F5B2D5B3B
:10B43800CC52AB528B4AAC526F632D5BEC526A42D2
:10B4480010843CEF99DE54ADDADE79CE99CEF6C59C
:10B4580016C677D6D4C552B531B52D9CAC8B66626D
:10B468006349466209832CAC33E66DAC51C5D3CD34
:10B47800ED8B685A0C6BEC6A4D73284A44294431A9
:10B488004429AA5A4C6B0742CA524D6B0C5BA73130
:10B49800C410E5186729C731A729A729A731662944
:10B4A80066212519462145214521452125192519BA
:10B4B80024192419241904192419252124212419AB
:10B4C8000419041904191274126C1274CD4AE9296A
:10B4D800127432746F63CC4AE929A821E9314B3AD6
:10B4E8006F5BF16B90634E5B2E5B4E5B6F5B4E5BED
:10B4F8000C53CB52AA4A8B422D5B6D63684AAD73DD
:10B508001AE757DE12B5D7C5DBDED6BDF6BDF6C5E0
:10B51800B4BDB4BD72B511ADF0AC2D9CA86A22398A
:10B52800023922394A8BCA9B91D591D530BD72C553
:10B53800E96A2331284A4D736D73CA62474A074A3C
:10B548006531485254AD895285298629A731E83991
:10B558008731662946214621E83966294521462151
:10B5680046216621451945214521452125212519D1
:10B5780025192519241925212521252124190419DE
:10B588000419041904191274127432742E53A82160
:10B598009063537C8F63ED52E93188210A326B3A0C
:10B5A8006F5BD16B6F630E53ED520D534E5B6D5B4A
:10B5B8002C5BEB52AB4ACC4ACC4A2C5B4B6B16C685
:10B5C80057D6F1AC33B558D658CE99D6D5BDB5BDFA
:10B5D80073BD32B531B511ADD0AC0E9CE97284495A
:10B5E8000139676ACC9BAA9BCEBCF3E531C531BD56
:10B5F800876202290329C641A639E741C539C641F0
:10B60800C641485291946D6BCB5208428631A7319E
:10B618000842094287292521E41866294521051988
:10B628004619E4100519051904190419041905190E
:10B638000519051924192519251925190419041995
:10B648000419041904191274127412749063E92904
:10B65800ED4A527CB06B0D532A3287210A328C4254
:10B66800B063D16B90630E5BCC52CB4A0C532C5B0E
:10B678000C5BEC52CC52AC4AAC4AAA4A708416C64F
:10B68800F5C56F9C12ADF6C5FADE37CE74B5B0A419
:10B69800D1AC90A4D1B432BDD1ACB0AC4A7B097B5B
:10B6A8008B8B2DA48EB46DB4AFBC31CD10C5EFBC5F
:10B6B8008EAC8341C220C220C639484A653103296D
:10B6C8002852EB6255B54D6B8629F07BCF7BC83984
:10B6D800A73108428A4AAB52294286298729C829B4
:10B6E8006721A82946192519251905190519E418E6
:10B6F800E418E418E41804190419041904190419BD
:10B7080004190419041933741274F16BD16B2A32B9
:10B718004B3A1274B06BED524A3A8721E931AC4288
:10B728001174D16B6F630D5BAB4A6A426A428A42FD
:10B738008B4A8B4A8B4A4A4209328A42508416C63F
:10B74800D4C5709C4F94F6C5B9D674B5B1A44B73E3
:10B758004B7BCD8B90AC12B553BDB4C5B4C56FA4AB
:10B768004EA48EACCFB4EFBCEFBC31CD92D5EFBCBC
:10B7780051C54A83C5498439064A2B6BA5396010DF
:10B78800685A58DE79DE65314429EB628E73C73911
:10B7980082106631C8396A4A149D56A5AB4A093ADF
:10B7A8006A424A3A2A3A0932E831A72967214621EA
:10B7B800251905190511E510E410E41804190419F0
:10B7C800E418E418E418137432741274116CAC425F
:10B7D800C8291274B0632E532A32872109320D53B7
:10B7E800527CD16B6F63EC52494209324A3A2A3A89
:10B7F800293A293AC8318729872929425084F6C528
:10B80800F5CD8FA4ED9336CEB5BD33ADC9624429CD
:10B81800074A0B73D2AC53B516CE57CE98DE37D63F
:10B8280094C5D4CDF3D514DE14DE91C571C550C5C9
:10B838008EAC52CD2EAC8B936A838B836A7B4A7B0A
:10B8480094C557DE53C5509CF2AC13AD33B5509434
:10B85800E741C220A218A31031843CDFB38CA7298A
:10B86800E8318B42CC52ED52CD4A8C422A3A0A3208
:10B87800E929C829872147194619261925190519BB
:10B88800E418E318E41813741274327411740D5325
:10B89800872190631274ED4A6B3AA72109328F63AE
:10B8A80032744F5B2E53CB52293A4A3A4A420932F4
:10B8B800C829A729A729E8316A42E8398E73F6C54D
:10B8C800F5CDF1B4EC93B4BDF5C532B5EA6AC2184A
:10B8D8002429EA6A74BD37CE36C694B533AD95BD12
:10B8E80016CE36D675DEB6EE38FF17F771BDAEAC9C
:10B8F800CFBC32D553D52EAC2DAC0C9CAFACD3D528
:10B9080032C5CC930E9C709C4F944F9C709CB1A4F4
:10B9180033B5EE83E7412842AA4A1074359D29328F
:10B92800C4102519C8316B42CD4A4E5B4F5B0D538D
:10B93800AC426B3A4B322A32E9298721461905195C
:10B94800C410C310E4181374F26B127411746F5B93
:10B958008721ED4A537C2E532A3287214A324E5B87
:10B968001174B0634F5BCC4A293A4A422A3AA72954
:10B97800A72909328B428B4A083AC7397194B4BD5A
:10B98800F5CD73C5EC9312B516CE12B5CD8B0B6BF6
:10B998000B6B0F8CF6C5D6BDCE7B484ACA5A6C7B5A
:10B9A80073BDF4D5D4D575EE38FF38FFD4DDB0BCFF
:10B9B8006872076ACEA30EAC4FB40DAC8FBC0DAC49
:10B9C800877AAC9394CDE64964316439675A0E8C12
:10B9D800AC834F94F2A45084EB52317C7284E831EA
:10B9E800A308C410C41005194621C8318B422E5B28
:10B9F8006F634E5B0D538C428C426B42E93146219A
:10BA0800C410A308C4101374F26B1274116CD063C1
:10BA1800E9294B3A32742E532A32872109328F632F
:10BA280032749063B063AC42E929E9314A3A6A4218
:10BA3800AB4A8B424A3A093AC7312C6395B553B59C
:10BA4800F5CDD4CDD0ACD1ACD5CD90ACAD8B0E94DA
:10BA58002F9412AD37CE3084032124292429685A23
:10BA6800F1B4B3CDD3D514E675EE97F656EE74D58A
:10BA7800697A6551286AEFA3E669A9826FC40A93B7
:10BA8800A4614EAC4E9CC2204010601033B5D4C5A2
:10BA980011AD16C612A533A575A518BE4E63A40828
:10BAA800E410C410E418E410E410E4102519662129
:10BAB8000932CC4A6E5BB06B6F630E53CC4A8B4A2B
:10BAC8002A3A8721E510126C1274126CF16BD16B53
:10BAD8006B3AE92912742E5BC9294619E9318F633B
:10BAE8001174AC42ED4A4B32AC422E534E5BAB4A1A
:10BAF800293A0932E8318629C731708C94BD12ADD4
:10BB080093C5F5D593C5D1AC32B590AC6B8B4B834F
:10BB1800CD9333B557CE91940321E42065316C83DE
:10BB280011BD31BDB3D5D3D593D5F1BC16E60FA45D
:10BB3800A5514C8BCE936D8BA659AEA3CEAB0A9371
:10BB48004B9393D5CC8B2008242912A59CF75BF73F
:10BB5800BCFFBCFF1AE7D294EF73083AA308A310FE
:10BB6800E418C310E318E418C310C310C310C410BA
:10BB7800E41025196621293ACC4A6F63B06B6F63CC
:10BB88002E5BCC4A6B42F26B126CF16BF16BD16B92
:10BB9800AC42A821F16B0E53C82909328B422D53B0
:10BBA8008F63AC42EE4A705B705B4E5BCC524A428C
:10BBB800C831A8298729A729AA52919412ADD1A4DE
:10BBC80053BDF5CDF5CDB0A46F9C6FA46B832A83CC
:10BBD8006B8BD1ACD5C5D6C5AE7BA741A641A96AAA
:10BBE800AB8B0C9CAFB4F0BC6FA447620B7B0752C5
:10BBF800E23023398649A64165416551AA82AA8265
:10BC08006772B3CDEC8B6B7398CEFEFF9CF77BEF1E
:10BC1800D9DEF6BDF29C0C5B2419A729E410E418C0
:10BC2800C310C318C318C310E318E4180419E418A0
:10BC3800E310E4100411C4102519A7296A422E5BE9
:10BC4800B06B90634E5BF26B126CF26BF26BF16B44
:10BC58002E5388216F5B4F5BE9296F63B06BED5200
:10BC68002E5BD06BB163705B4F5BED4A293AA72915
:10BC78008729E8316A42AA52919433AD32AD909C3B
:10BC880012ADB4C536D632B54F9C709CAC8B4B8B7D
:10BC98008B8B90A474BD94BD75BD1094E7518441FD
:10BCA800A86AEC934D9C56DE0D8C601064294429DB
:10BCB8006531A539442984312329C220485A0F9473
:10BCC8000A73ED8BD4BDFEFFFEFF9CEFB9D6B6BD5F
:10BCD800718C0C63E7390419C73169420419A31040
:10BCE800C310E318A210C310C310A310C310C310CD
:10BCF800E418E410E410E418E410E41025196621AF
:10BD0800093AEC4A6E63F26B136C126CF26B1274A4
:10BD1800906388210D534E5B2A3A2E5B4E5BD06BA5
:10BD2800B06390632F532F53AC422932A729093AA5
:10BD38006A4A8A4A2C63718CF2A494BDB5C52F94C3
:10BD48002F9494BD15CE52B52E94B2A4509CCD9389
:10BD5800ED93909CD1A4F2AC90A4EB72CA6A6C8368
:10BD68004E9CCFAC8EA476DE2E8CE118232185293B
:10BD780085298529C5318429842902196C6BF2A487
:10BD8800064A73B5FDFFDDF7D9D694AD50840C6330
:10BD98004942A73146216621A7298A4A04198208FF
:10BDA800E310C310E318C310C410C410C410C4189F
:10BDB800E418E418E318E418E418E4100419E4108B
:10BDC800E4104519A729126C126CF26B126CF26B15
:10BDD800B0630A324B3A2E536B3A2E532E534F5BB5
:10BDE800B0634F5BCD4A6B422A3A293A6A428A428B
:10BDF8006A420C639194B19CF2A494B5F6C5F2AC76
:10BE08006852F1A493BD52BD0E8CF3A455AD91A414
:10BE180090A4F1A4D0A44E9CCD8BAD8B0E940E941F
:10BE28004E9C10B5D3CD15D6909CC539232124211D
:10BE38004529863185318529242185298D6B684AD4
:10BE48008D7B9CFFFAE674AD2F840B5B694AE83959
:10BE58002521E518A731872987296A424521A208A3
:10BE6800E310E310C310C410C410C410C410C310EE
:10BE7800C310C318C318E418E318E418E418E41846
:10BE8800041904190419F26BF26BF26BF26BF26B82
:10BE9800F16B4B32A8218B42CC4A0E532E53B06320
:10BEA800B063AC424B3AAC4A2D5B6A42293A293A14
:10BEB800E839EB5A0F8CD1A432AD53B594B5B6BD61
:10BEC8002B6BAD7B11AD10AD6F9CD49C77B595B540
:10BED80074B5F4BD52AD8FA4D0AC32B5D1AC6FA45B
:10BEE80032B5F4D5D4CDD5CDF1AC68526529E31877
:10BEF800C3180421E31824216521083AEB524C6346
:10BF080013A595B50F84EB62484A2842E7392521E5
:10BF1800A3100519C8318729872949426621A30832
:10BF2800C310C310C310C310C410C310C310C31070
:10BF3800C310C318C318C318C318E318E318E318C9
:10BF4800E31804190419136C126C136CF26B126C5D
:10BF5800F26B8C4226110932ED4A0E534F5BB163E6
:10BF6800F16BED4A2E534E63CC4A0932C729083A81
:10BF7800C731AA5AB19CF2AC12AD33AD94B5F6C52F
:10BF88000F846C73D1A410ADD1A4D59C79ADF8BD44
:10BF980037BE56C6D3B5B4C5B4C553BD93C5B4C52D
:10BFA80093C5D5CD94C5B4C59094274A474AAA529B
:10BFB800074266316529C731CB4ACF6B5184718CF2
:10BFC80030840B638952694AE841A73166292521E3
:10BFD80024218629294287298729E8316621A3084F
:10BFE800A308C310C310C310C310C310C310C310D9
:10BFF800E310E318E318C318C318C318C318C31809
:10C00800E318E418E418136C126C136C136C136CBB
:10C01800F26BED4A26116719ED4A2F532F53705BC7
:10C02800F26BF26B6F5BCC528B4A2A3AA7298629AE
:10C0380066290B63B19C32AD53B553ADB5BDD6BDC2
:10C04800508CCA5AEE83F0ACB1A4D69C59AD98ADC9
:10C0580059BE15B6D3B5B4BDB5C594BD94BD93BD91
:10C0680073BD73BDF2AC53B5909488520A63AE7B2E
:10C07800AA5A294ACC5AAF6B9284928C107C8D6B49
:10C088000B5BA952894AE84187318731A731652975
:10C098006521C731083AA7298629A7296621A30857
:10C0A800C310E310C310E310C310C310C310C310B0
:10C0B800C310C310C310E318E318E418C318C31857
:10C0C800C318C418C418336C126C336C136C136C1B
:10C0D800F26B6F5B671926112A32705B505B4F5306
:10C0E800B163F26B1274AC424A3A0932A729862925
:10C0F80045216C6B13A553B553AD53ADB5BDD6BD36
:10C1080054AD0B636C73909CB19CF6A459AD58A5C3
:10C11800D8B537BEB4B5D5BDB5BD95BD74BD94BD54
:10C1280053B5B1A4F2AC33B5B09C474A6429C741B2
:10C13800494A2D63CF7B5184107CAE732C63CA5A55
:10C14800AA5A4942C7316629A731A731C731E83908
:10C1580086298629494286298629A7316629A3087E
:10C16800A310C310C310C310C310C210C210C31051
:10C17800C310C310C310C310C310E318E418E418A5
:10C18800E418E418E418336C136C136CF36BF26B5B
:10C19800126CB063A8210611E929AD42D263915B04
:10C1A800705B705B747C527CAC4AC8298721451946
:10C1B80025198D6B33A575B574B594B594B5D5BDF2
:10C1C80017C62C6389526F8C12A5F5A437AD389D1C
:10C1D800B58C18BEB6B595B5B6BD75B5B5BD54B573
:10C1E800709C909CF2A4B19C2B6BE6392742CA5AEA
:10C1F8004D6BEF7B1084AE734C632B632C638952B9
:10C20800C73966294621A731A731A731083AE83945
:10C218008629C731694266296629A72966298208BD
:10C22800A308A310C310C310C210C310C310C310B7
:10C23800C310C310C310C310C310C310E318E3180E
:10C24800E318E318E318336C136CF36BF36BF26BBE
:10C25800126C116C4B3AC5082A32EA290F53D26383
:10C26800B15BB15B705BD063737CAC4A67214519E5
:10C278004519CB52B28C95B5B6BDB5BDF6C5F6C558
:10C28800D29CAA52918C908CD29C7294949C18A5A2
:10C29800358437ADB7B554A575ADF3A4D3A4509480
:10C2A800919C33A58D736952484AA9522B636C6BD4
:10C2B800AD73AD734C6B6D6B4C6BCA5A07428531CD
:10C2C8004529A629A729A629E739E8392942093A9B
:10C2D8006621A7298A4A8629452186294521A2104F
:10C2E800A210A310A310A310A310C310C310C3104F
:10C2F800C310C310C310C310C310C310C310C3109E
:10C30800C310E310E310336CD263D263F36B136C86
:10C31800136C33740E530611A821AD42C921915BE9
:10C32800F263D263915B905BD16332740D53251134
:10C33800041165210C5BD39CB6B5B5BDB5BDD5BDA3
:10C3480074AD6D6B6D6B0F7C4C63CB5A4F6B9694D1
:10C35800F47B9073F59C928CB294CF7B0C634D6BFD
:10C368008D73CA5A48426A4AAB5A4C634C634B6352
:10C378006C636C6B8D6BEA5A2742C63985318531FF
:10C3880086316621A629083AE739083A2942E83170
:10C398006621A729293A083A662986294521C31022
:10C3A800A3108208A210A210A310C310C310C310B8
:10C3B800C310C310C310A308A310C310C210C21027
:10C3C800C210C210C210136CF263D263F363F2633B
:10C3D800336C5474D163471967190E53A929C929B5
:10C3E800905BF26B126C1364D25BD15B5374B063D5
:10C3F8002932A729C7310C5B75AD95B5D6BDF6BDF9
:10C4080017C6F6BD70846942652186294E63F27BA2
:10C41800AD4AC931ED528F6BEC526A4A8A4A6A4A70
:10C42800494A894ACB5A0C63EB620B634B636B6BCB
:10C438002B638952E739A631C731C7398631652957
:10C448008631C7394942E739E839083A2842C631BE
:10C458008529A629083A8B4AC831662986294621A2
:10C468008208A210A208A210A110A210A210C31044
:10C47800E310A308C310C310C310C310A210A21066
:10C48800A210C210E310136CF36BF363F263F26350
:10C498001264547453740A32E5082E5B8C420611F8
:10C4A800E929905BF2631364F363D25BD16352743E
:10C4B8003174AF630832A7298E6B14A5B6B5F7BDE2
:10C4C800D6B595AD38BED394E41025194A420E5B13
:10C4D8004B420E5B6C42AC4A6B426A428A4AAB5290
:10C4E800CB52EB5AEB5AEB5AEB5AEA5AC95227424B
:10C4F80084294529A631E839C739A731A6316529E4
:10C50800C739494A0842C739083AE839C73185293D
:10C51800A629C729093A8B42093A462166210932D8
:10C52800E4186100A2088110A210C210A2088208B3
:10C53800A308A308A310C310C310C310C210A210ED
:10C54800A210A210A208136CF36BD263F263F26319
:10C55800B163B163D163AC420611ED4A2E5BC929C0
:10C56800E508C9294F53D263136C336CF263D16366
:10C57800B05B116CF06BED528B4A0C5B107C928CAB
:10C58800F39496ADB7ADD38C862946212619E931A7
:10C598004E5B6F634F63CC52AB4AAB52EC5AEC5ACA
:10C5A800EB5ACB5AAA528A526952284A853103213A
:10C5B8006429E739E839E839C7396529A631E739FF
:10C5C80028424942C739E739C73186298729C731FF
:10C5D800E831C829E829E931093266214619E831E4
:10C5E800E9318308A208A210C2108208A210A31081
:10C5F8008208A310A208A310A310C310C310C3106D
:10C60800A310A210A2103374F26BB163915B4F5365
:10C61800CD4A8C3A6B3AE9290611AC4AB06B4B3AD1
:10C62800471906110A2AEE4A705BD163126C336C03
:10C63800F163D163D163D06B6F630D536B42AC4A26
:10C648008F63317C10740C53A72966218729A82988
:10C658006B420D5B2E5B0D5BEC52EC52EC5ACB52ED
:10C668008A4A4942284228420842A6318531C639B9
:10C67800E739C739A731C731C739A631E739284261
:10C68800073AC73186296529862966296729A8298D
:10C69800C831A829A72909326A4286214519C83113
:10C6A800293A462183088208A210A208A210A310E2
:10C6B800A210C310A210A210A210A310A310A310BE
:10C6C800C310C310C31091632F53EE4A8C422A3211
:10C6D800E929C929A821882106116B3AB063AC4A17
:10C6E800A82926198721A9218C422F53905BD26350
:10C6F800336C536C136CD1639163705B4F5B6F5BEE
:10C708004F5B4E5BAB428A42E831A729C8316721AB
:10C71800C8312D5B0D5B0D5B0C5BCB524942C731B9
:10C72800A631C739E839C73966298629C631A631FD
:10C73800A631E739E839C739C631073A2742C63141
:10C748008629862966298629872987298729A8315C
:10C75800A8298829A831093A083265216521662166
:10C768008B42F173A92962008208C310A2088208CB
:10C77800A210A310A210A210A210A210A210A21020
:10C78800A210A210C2108C422B320A32C82987216B
:10C79800872187216721461906112A32D16B6F63D9
:10C7A800C829051167218821A9296C3AAD420F4B88
:10C7B8005053F263336C747C5474F36BF26BB16353
:10C7C800F16B737CB0630D5B8B4A6621C829C8295D
:10C7D800C7298A424E63AB4A4942E731A6318529C7
:10C7E8006529452945218629A731A731A631A731D1
:10C7F800A731A731C731A731C631E731A52965214E
:10C8080065298629A7318731A731A731873187293B
:10C81800672946290521042165290319C210E31057
:10C828004A42127C9063261983088208A208A21043
:10C83800A2108210A210A210A210A210A210A21080
